:100000000C945D000C9485000C9485000C94850084
:100010000C9485000C9485000C9485000C9485004C
:100020000C9485000C9485000C9485000C9485003C
:100030000C9485000C9485000C9485000C9485002C
:100040000C9485030C9485000C94F5030C94CF0359
:100050000C9485000C9485000C9485000C9485000C
:100060000C9485000C94850000000008000201003B
:100070000003040700000000000000000000000072
:10008000250028002B0000000000240027002A0083
:10009000040404040404040402020202020203032E
:1000A0000303030301020408102040800102040836
:1000B0001020010204081020980711241FBECFEF62
:1000C000D8E0DEBFCDBF11E0A0E0B1E0EEEDFFE093
:1000D00002C005900D92A831B107D9F722E0A8E13E
:1000E000B1E001C01D92A93DB207E1F710E0CDE5F6
:1000F000D0E004C02197FE010E94E707CC35D1076C
:10010000C9F70E9427040C94ED070C94000090E0BE
:10011000FC01EC55FF4F249180579F4FFC018491C7
:10012000882399F090E0880F991FFC01EA57FF4F50
:10013000A591B491FC01E458FF4F859194918FB73C
:10014000F894EC91E22BEC938FBF089590E0FC01C2
:10015000E859FF4F2491FC01EC55FF4F3491FC010D
:10016000E057FF4FE491EE23C9F0222339F023300A
:1001700001F1A8F4213019F1223029F1F0E0EE0F5D
:10018000FF1FE458FF4FA591B4918FB7F894EC91FD
:10019000611126C030953E233C938FBF08952730D0
:1001A000A9F02830C9F0243049F7809180008F7D74
:1001B00003C0809180008F7780938000DFCF84B56B
:1001C0008F7784BDDBCF84B58F7DFBCF8091B0006E
:1001D0008F778093B000D2CF8091B0008F7DF9CF20
:1001E0003E2BDACF3FB7F8948091380290913902D4
:1001F000A0913A02B0913B0226B5A89B05C02F3FC3
:1002000019F00196A11DB11D3FBFBA2FA92F982F3C
:100210008827BC01CD01620F711D811D911D42E037
:10022000660F771F881F991F4A95D1F708952FB73A
:10023000F894609134027091350280913602909169
:1002400037022FBF0895AF92BF92CF92DF92EF9205
:10025000FF920F931F93CF93DF936C017B018B0170
:10026000040F151FEB015E01AE18BF08C017D107C0
:1002700059F06991D601ED91FC910190F081E02D4A
:10028000C6010995892B79F7C501DF91CF911F919F
:100290000F91FF90EF90DF90CF90BF90AF900895B7
:1002A000FC01538D448D252F30E0842F90E0821B7C
:1002B000930B541710F0CF96089501970895FC0101
:1002C000918D828D981761F0A28DAE0FBF2FB11D59
:1002D0005D968C91928D9F5F9F73928F90E00895B1
:1002E0008FEF9FEF0895FC01918D828D981731F06B
:1002F000828DE80FF11D858D90E008958FEF9FEFBF
:100300000895FC01918D228D892F90E0805C9F4F94
:10031000821B91098F73992708958CE392E00E94C4
:10032000810121E0892B09F420E0822F089580E0EB
:1003300090E0892B29F00E948D0181110C9400001E
:100340000895FC01A48DA80FB92FB11DA35ABF4F6A
:100350002C91848D90E001968F739927848FA689C4
:10036000B7892C93A089B1898C91837080648C9318
:10037000938D848D981306C00288F389E02D8081C7
:100380008F7D80830895EF92FF920F931F93CF93F9
:10039000DF93EC0181E0888F9B8D8C8D98131AC0C0
:1003A000E889F989808185FF15C09FB7F894EE89A7
:1003B000FF896083E889F989808183708064808304
:1003C0009FBF81E090E0DF91CF911F910F91FF904F
:1003D000EF900895F62E0B8D10E00F5F1F4F0F73F7
:1003E0001127E02E8C8D8E110CC00FB607FCFACFB2
:1003F000E889F989808185FFF5CFCE010E94A101AE
:10040000F1CFEB8DEC0FFD2FF11DE35AFF4FF08282
:100410009FB7F8940B8FEA89FB8980818062CFCFE8
:10042000CF93DF93EC01888D8823B9F0AA89BB892B
:10043000E889F9898C9185FD03C0808186FD0DC016
:100440000FB607FCF7CF8C9185FFF2CF808185FF37
:10045000EDCFCE010E94A101E9CFDF91CF910895A8
:100460008F929F92AF92BF92CF92DF92EF92FF92C4
:100470000F931F93CF93DF936C018B01EA010E94CE
:1004800017018090220190902301A0902401B09048
:10049000250186169706A806B90648F50E94170199
:1004A0000D2C000CEE08FF08DC01CB018C0D9D1D0E
:1004B000AE1DBF1D8093220190932301A0932401C0
:1004C000B0932501809121018130F1F0823089F1D2
:1004D0001093200100931F01D0931E01C0931D01B2
:1004E00061E08DE00E94A60081E080932101DF9110
:1004F000CF911F910F91FF90EF90DF90CF90BF9021
:10050000AF909F908F90089580911F01909120014E
:10051000EC012197D0932001C0931F0161E080FF7F
:1005200060E08DE00E94A6001C161D0604F382E028
:10053000DCCFC0911D01D0911E012197D0931E01E7
:10054000C0931D0160E08DE00E94A6001C161D06F0
:1005500074F210922101CBCF0F931F93CF930E947F
:1005600017010091190110911A0120911B0130917E
:100570001C010617170728073907E0F40E94170126
:1005800068537F4F8F4F9F4F6093190170931A01EB
:1005900080931B0190931C01C091180161E0C1116F
:1005A00001C060E084E00E94A60081E0C11180E00B
:1005B00080931801CF911F910F91089560E082E020
:1005C0000C94A60061E082E00C94A600FC0101906E
:1005D0000020E9F73197AF01481B590BBC018CE3B0
:1005E00092E00C9423018F929F92AF92BF920F934F
:1005F0001F93CF93DF93CDB7DEB7A1970FB6F894D3
:10060000DEBF0FBECDBF19A2423008F44AE08E0112
:100610000F5D1F4F842E912CB12CA12CA5019401AC
:100620000E94C507E62FB901CA01EA30F4F4E05D83
:10063000D801EE938D01232B242B252B79F790E005
:1006400080E0109719F0CD010E94E602A1960FB646
:10065000F894DEBF0FBECDBFDF91CF911F910F91F8
:10066000BF90AF909F908F900895E95CE1CFCF92BB
:10067000DF92EF92FF92CF93DF936B017C016DE2EB
:100680008CE392E00E94C301EC0166277727CB013F
:100690006C197D098E099F094AE00E94F3028C0FB4
:1006A0009D1FDF91CF91FF90EF90DF90CF90089545
:1006B0008091B90087FF26C06091260170912701C3
:1006C000072E000C880B990B97FF18C00E94370368
:1006D00082E191E00E94E6026091B900687F70E0DB
:1006E00090E080E04AE00E94F30284E191E00E9401
:1006F000E6028091B900887F90E008954AE00E9468
:10070000F302E6CF88EF90E008951F920F920FB6A4
:100710000F9211242F933F938F939F93AF93BF9387
:100720008091340290913502A0913602B091370247
:100730003091330223E0230F2D3758F50196A11D88
:10074000B11D209333028093340290933502A0931D
:100750003602B09337028091380290913902A0910D
:100760003A02B0913B020196A11DB11D809338025F
:1007700090933902A0933A02B0933B02BF91AF919C
:100780009F918F913F912F910F900FBE0F901F90CF
:10079000189526E8230F0296A11DB11DD2CF1F92F6
:1007A0000F920FB60F9211242F933F934F935F93A5
:1007B0006F937F938F939F93AF93BF93EF93FF9329
:1007C0008CE392E00E94A101FF91EF91BF91AF9164
:1007D0009F918F917F916F915F914F913F912F9159
:1007E0000F900FBE0F901F9018951F920F920FB68B
:1007F0000F9211242F938F939F93EF93FF93E09188
:100800004C02F0914D028081E0915202F09153022E
:1008100082FD1BC09081809155028F5F8F73209164
:100820005602821741F0E0915502F0E0E45CFD4F82
:10083000958F80935502FF91EF919F918F912F910A
:100840000F900FBE0F901F9018958081F4CF789471
:1008500084B5826084BD84B5816084BD85B58260C5
:1008600085BD85B5816085BD80916E008160809376
:100870006E001092810080918100826080938100DF
:1008800080918100816080938100809180008160EF
:10089000809380008091B10084608093B10080914A
:1008A000B00081608093B00080917A008460809372
:1008B0007A0080917A00826080937A0080917A0039
:1008C000816080937A0080917A00806880937A00BA
:1008D0001092C1000FB6F894A895809160008861CD
:1008E00080936000109260000FBE8AE28093BA008D
:1008F00084EC8093BC00E0914C02F0914D0282E0C8
:100900008083E0914802F09149021082E0914A020E
:10091000F0914B0280E1808310925402E0915002EA
:10092000F091510286E08083E0914E02F0914F02F7
:10093000808180618083E0914E02F0914F0280813E
:1009400088608083E0914E02F0914F028081806840
:100950008083E0914E02F0914F0280818F7D8083F1
:1009600081E08093300182E00E94870083E00E9452
:10097000870084E00E9487008DE00E94870061E08C
:1009800083E00E94A60061E084E00E94A6000E942D
:10099000E2020E941701603A7F4081059105B8F19B
:1009A00038EE232E33E0332E03E010E084EC582E93
:1009B00092E0492E23E1622E712CC0912801D09142
:1009C000290180912F018C7F9C2F9370892B80931C
:1009D0002F0184FF2CC050E040E062E070E084E62C
:1009E00090E00E94300210922E01C130D105C1F476
:1009F000109229011092280160E084E00E94A60074
:100A000060E083E00E94A6000E94DE0255C050E034
:100A100040E061E070E084EF91E00E943002B9CFE5
:100A2000229751F71093290100932801E5CF48E25E
:100A300050E083FF82C063E070E082E390E00E94B8
:100A400030020E94E20280912E0161E0811101C01A
:100A500060E083E00E94A60080913001829D6001E9
:100A6000839DD00C11240D2C000CEE08FF08809003
:100A70002A0190902B01A0902C01B0902D0188EEBE
:100A8000880E83E0981EA11CB11C0E941701C80C9F
:100A9000D91CEA1CFB1CC61AD70AE80AF90AC1309D
:100AA000D10509F483C008F44FC0C230D10509F460
:100AB00050C0239709F44BC08091260190912701E3
:100AC0008130910509F4C5C008F49CC0029709F46F
:100AD000E1C0C0913102CC2379F00E94F2006B0199
:100AE0007C010E94F2006C197D098E099F09683E05
:100AF000734081059105A8F3E0912E02F0912F0239
:100B00003197E431F10508F0FFC0E757FA4F0C9434
:100B1000E707D206DD06EB068406F906840684069E
:100B200084068406840684061507840684068406E3
:100B3000840684066F077E078B0761E070E082E31E
:100B400090E00E9430027FCF60E084E05BCF61E004
:100B5000FCCF1C141D041E041F0424F01092290154
:100B6000109228010E94AC02EDEDCE16E5E0DE0603
:100B70000CF04ACFF9EECF16F3E0DF061CF00E942E
:100B8000E2029ACF25EFC21621E0D2060CF03CCF4C
:100B9000E8E7CE16E1E0DE0694F7FEE7CF1AD108CB
:100BA0002DE7C216D10408F02FCFE9CF1C141D0485
:100BB0001E041F0424F010932901009328010E94B1
:100BC000AC02EDEDCE16E5E0DE060CF01DCFF0E652
:100BD000CF16F5E0DF069CF623EEC21624E0D2061F
:100BE0000CF012CFE6E6CE16E4E0DE0644F6F5EFB2
:100BF000CF1AF1E0DF0A24EFC21621E0D20608F096
:100C000003CFBDCF8091BC0087FF63CF0E94580304
:100C10008838910569F14CF48036910589F0803867
:100C2000910531F15092BC0054CF883A9105D1F72B
:100C30004092320281E08093310282E090E004C071
:100C40005092BC0081E090E09093270180932601B0
:100C500040CF8091BC0087FF3CCF0E94580388386A
:100C6000910531F0803A910569F080389105F9F4E9
:100C70008091BB008093300281E0809332028093A8
:100C80003102D0CF10922701109226011092320229
:100C900081E0F5CF8091BC0087FF1BCF0E945803F5
:100CA000883B9105E9F064F4883A9105C9F0109207
:100CB0002701109226011092320240923102B2CFE7
:100CC000803C910519F0883C910589F71092320219
:100CD00081E0809331021092270110922601A2CF69
:100CE000809130028093BB004092320280913102A9
:100CF000833039F484E88093BC0081E08093310232
:100D0000E8CE5092BC00F9CFCC2389F0109231028A
:100D1000809132028130D1F580913002982F907FFE
:100D2000903F91F480912F01806180932F01E0E04A
:100D3000F0E0EF2B09F441CE0E948D01882309F4E5
:100D400035CE0E94000032CE8230D1F038F48823B4
:100D500081F0813061F785E090E00DC0803199F03D
:100D6000E2E1F0E0853E19F7F0932F02E0932E02C6
:100D7000DECF81E090E090932F0280932E02D7CFB8
:100D8000E8E0F0E0F1CF8CE090E0F5CF823079F64A
:100D900080912F018093300283E08093310286E1BD
:100DA00090E0E9CFCC2319F2109231028091300209
:100DB0008F3F91F582E090E0DECFCC2309F4B7CFEE
:100DC0001092310280913002853531F510932F0257
:100DD00000932E02ACCFCC2309F4A9CF109231029C
:100DE000809130028A3AC1F4D0E0C0E0FE0109955A
:100DF000FDCFCC2389F010923102809132028130F4
:100E000059F4C0912F0180913002882351F00E9443
:100E1000E202C860C0932F0110922F0210922E029E
:100E200086CF0E94DE02C77FF5CFCC23A9F31092B4
:100E3000310290913202913079F780913002833102
:100E400041F490932E0180912F01846080932F01B3
:100E5000E3CF8C3891F480912E01813051F4809150
:100E6000280190912901009711F0039711F4109235
:100E70002E0180912F018B7FE9CF8A35D9F48091A3
:100E8000280190912901892B39F680912E0181301A
:100E900019F681E090E090932901809328010E9447
:100EA000170160932A0170932B0180932C0190937A
:100EB0002D01B2CF893679F48091280190912901D2
:100EC000039709F0A9CF80912E01813009F0A4CFBA
:100ED00082E090E0E0CF80912F018062B7CFCC23F9
:100EE00009F425CF10923102809130028A3709F03F
:100EF00093CF70922F0260922E0219CFCC2309F467
:100F000016CF10923102809130028F3F09F084CFCA
:100F100084E190E030CFCC2309F409CF1092310264
:100F200080913002813809F077CF10922F0174CF71
:100F3000ECE3F2E01382128288EE93E0A0E0B0E0EE
:100F400084839583A683B78384E091E09183808333
:100F500085EC90E09587848784EC90E0978786877E
:100F600080EC90E0918B808B81EC90E0938B828B76
:100F700082EC90E0958B848B86EC90E0978B868B4F
:100F8000118E128E138E148E0895A1E21A2EAA1BB2
:100F9000BB1BFD010DC0AA1FBB1FEE1FFF1FA21729
:100FA000B307E407F50720F0A21BB30BE40BF50B26
:100FB000661F771F881F991F1A9469F760957095AF
:100FC000809590959B01AC01BD01CF010895EE0F76
:0E0FD000FF1F0590F491E02D0994F894FFCFD7
:100FDE0000000000C30123015001100281015F01D6
:080FEE0073012F000D0A000041
:00000001FF
